:0300030002006791
:10006700C0E0C0D0C3E50994D0E5089407500B74ED
:10007700C82509F509E43508F508E509B4D00BE505
:1000870008B40706D2A0C28C8005208C02D28CD07F
:04009700D0D0E032B3
:0300130002009B4D
:10009B00C0E0C0D0D3E5099400E5089400400C748F
:1000AB00382509F50974FF3508F508E50945087089
:1000BB0006C2A0C28C8005208C02D28CD0D0D0E09E
:0100CB003202
:03000B00020016DA
:10001600C0E0C0D0C28C20A022C374FF9509F50BA6
:1000260074FF9508F50AF58CE50BF58AD3E5099476
:1000360000E50894004023D2A0801FE509242FF58F
:100046000BE50834F8F50AF58CE50BF58AC3E509E6
:1000560094D0E50894075002C2A0D28CD0D0D0E04C
:010066003267
:1000CC00758901758CFFE4F58AD28CD2A9D2A8D29D
:0800DC0088D2AAD28AD2AF2219
:0A00F000E4F508F5091200CC80FECB
:030000000200E417
:0C00E400787FE4F6D8FD75810B0200F077
:00000001FF
