:0B094300EF1FAC0670011E4C70F62286
:10091700E4FDFCE4FBFAC3EB9FEA9E50070BBB0028
:0F092700010A80F20DBD00010CED647B4C70E401
:01093600229E
:10089A00E4FDD2A3D2A1D2A2C2A1C2A220A3FD305A
:1008AA00A3FDD2A4E4FCECC394087480948050277E
:1008BA00ED25E0FD7E007401A804088005C333CE4F
:1008CA0033CED8F9FFAB90EF5B60047F0180027FE3
:0B08DA0000EF42050C80CFC2A4AF0568
:0108E50022F0
:03000B0002094E99
:03094E00B2A5321D
:03001B000208E6F2
:1008E600C0E0C0D0C28E20A017E509F58DE50AF557
:1008F6008BC3E50A94FFE50994FF500ED2A0800A47
:10090600E50BF58DE50CF58BC2A0D28ED0D0D0E0EC
:0109160032AE
:10080000758912758AEC758CEC758BFF758DFFD22E
:100810008CD28ED2A9D2ABD2AFC2A012089A8F08C6
:100820007E00C3EF941474809480500E74FFF50919
:10083000F50A750BF9750CBF8057C3EF9419EE6478
:10084000809480500E7509FE750A6F750BFB750C50
:100850004F803EC3EF941EEE64809480500E750965
:10086000FC750ADF750BFC750CDF8025C3EF94283F
:10087000EE64809480500E7509FB750A4F750BFE6F
:10088000750C6F800C7509F9750ABF74FFF50BF5CF
:0A0890000C7F647E001209178081BE
:03000000020937BB
:0C093700787FE4F6D8FD75810C02080002
:00000001FF
