:10065B00256400456E7465722070617373776F72D9
:10066B00643A002020202020202020202020200061
:10067B003130313032303231004163636573736531
:10068B00642020202020202020200057726F6E67CE
:10069B002070617373776F726420202000202020FC
:0E06AB002020202020202020202020202000A1
:09088400E4FF1206B97F0A7E00B0
:0B088D00EF1FAC0670011E4C70F6223D
:1006B900EF6004D2808002C280D281ED30E703D39B
:1006C9008001C39285ED30E603D38001C39284EDA6
:1006D90030E503D38001C39283ED30E403D3800175
:0C06E900C39282C2817F017E0002088D56
:10085A00AB07EB54F0FD7F011206B9EBC454F0FD6F
:05086A007F010206B948
:10086F00AB07EB54F0FDE4FF1206B9EBC454F0FDF7
:05087F00E4FF0206B9D0
:1007B5001208897D301208841208841208847D206D
:1007C500E4FF1206B97F2812086F7F0C12086F7FAD
:0407D5000602086FA1
:0C0898007F0112086F7F0A7E0002088DAD
:0607D9008B1C8A1D891E25
:1007DF00E4F51FAB1CAA1DA91E851F82758300128D
:0C07EF00035FFF600712085A051F80E737
:0107FB0022DB
:10081C00750BFF750C06750D5B8E0E8F0F7B007ABA
:0F082C0000792F12005F7B007A00792F0207D925
:04083B007D01E4FF58
:10083F00AA05A907EA7007E92480FF12086FEA6486
:0B084F00017007E924C0FF12086F22AF
:10074600C2A4D2A3D2A2D2A1D2A020A0037F3122DA
:1007560020A1037F342220A2037F372220A3037F18
:050766002A227F0022A1
:10076B00C2A5D2A3D2A2D2A1D2A020A0037F3222B3
:10077B0020A1037F352220A2037F382220A3037FF1
:05078B0030227F002276
:10079000C2A6D2A3D2A2D2A1D2A020A0037F33228C
:1007A00020A1037F362220A2037F392220A3037FCA
:0507B00023227F00225E
:1006F500D2A6D2A5D2A4D2A3D2A2D2A1D2A0C2A45C
:10070500120746EF600122D2A4C2A512076BEF6063
:090715000122D2A5C2A612079030
:01071E0022B8
:1007FC00E4FDFCE4FBFAC3EB9FEA9E50070BBB0045
:0F080C00010A80F20DBD00010CED647B4C70E41D
:01081B0022BA
:10058800C2A71207B57BFF7A06795E1207D912084F
:100598003BE4F52DF52E1206F58F22E522C39430A3
:1005A800402DE522D394395026C3E52E940AE52D33
:1005B8006480948040030206437F2A12085A7423F9
:1005C800252EF8A622052EE52E7070052D806CE5E7
:1005D80022B42A0B12083B7BFF7A06796E8051E51C
:1005E800226423705678237C00FD7BFF7A06797B92
:1005F80012050AEF3395E04F7D017011FF12083F95
:100608007BFF7A0679841207D9D2A7800EE4FF12FD
:10061800083F7BFF7A0679961207D97FD07E0712AA
:1006280007FC30A702C2A712083B7BFF7A0679A80D
:100638001207D912083BE4F52DF52EE522600A7F52
:10064800FA7E001207FC02059E7F647E001207FCFA
:0306580002059EFA
:030000000208A44F
:0C08A400787FE4F6D8FD758138020588E5
:10035F00BB010CE58229F582E5833AF583E0225053
:10036F0006E92582F8E622BBFE06E92582F8E2229D
:0D037F00E58229F582E5833AF583E49322B7
:10000300E517240BF8E60517227808300702780B6A
:10001300E475F0011205520205272000EB7F2ED272
:10002300008018EF540F2490D43440D4FF30040BD5
:10003300EF24BFB41A0050032461FFE518600215D2
:1000430018051BE51B7002051A30070D7808E475C7
:10005300F001120552EF02054002071F7403D20795
:100063008003E4C207F5178B088A09890AE4F518A7
:10007300F51AF51BE51860077F2012003E80F57521
:1000830019FFC201C200C202C203C205C206C208EE
:1000930012000CFF700D3007057F0012004FAF1BDD
:1000A300AE1A22B4255FC2D5C20412000CFF24D0BD
:1000B300B40A00501A75F00A781830D50508B6FF4F
:1000C3000106C6A426F620D5047002D20380D924E3
:1000D300CFB41A00EF5004C2E5D20402024FD2019A
:1000E30080C6D20080C0D20280BCD2D580BAD205ED
:1000F30080B47F2012003E2002077401B51800402F
:10010300F1120003FF12003E020077D208D20680EC
:1001130095120003FB120003FA120003F94A4B7015
:100123000679207A037BFF20022EE518602A7E00E1
:100133008E8275830012035F60060EEE651970F000
:10014300C2D5EBC0E0EAC0E0E9C0E0EE120296D00F
:10015300E0F9D0E0FAD0E0FB120527FF60AAEBC07C
:10016300E0EAC0E0E9C0E012003ED0E02401F9D0AB
:10017300E03400FAD0E0FBE5190460DCD519D9803E
:10018300877BFF7A027992D202809C791080027970
:1001930008C206C2088008D2D5790A8004790AC247
:1001A300D5E519047002F519E4FAFDFEFF12000308
:1001B300FC7B08200113120003FD7B1030000A12A0
:1001C3000003FE120003FF7B20EC3382D592D5504F
:1001D30013C3E43000069FFFE49EFEE42001039D69
:1001E300FDE49CFCE4CBF8C201EC700CCFCECDCC8B
:1001F300E824F8F870F38017C3EF33FFEE33FEED16
:1002030033FDEC33FCEB33FB994002FB0FD8E9EBF6
:10021300300105F8D0E0C448B201C0E00AEC4D4E0D
:100223004F78207B0070C2EAB5190040BCC0E012D1
:100233000298D0F0D0E0200104C4C0E0C4B201C0F1
:10024300F0120027D0F0D5F0EB020077120562011F
:100253001453018E5800E54C00E14201924F019A7C
:0F02630044019A4900FA4301A0550184460184E1
:100272004501844703405000E92D00ED2E01102B6B
:1002820000F123010E2003292A00A94800000108D9
:100292003F3F3F00790AA2D5200314300509B91067
:1002A200020404B9080104A2D52006025001042068
:1002B20002689202B518005034C0E07F2030031962
:1002C2007F30A20272067205500F1202EFC202C202
:1002D20006C205C2087F30800F300503E9C0E01274
:1002E200003E300503D0E0F9D0E0B518CC30051758
:1002F2007F30B9100C12003E7F583004077F78809F
:1003020003B9080312003E3002057F2D02003E7F32
:10031200202008F87F2B2006F322920280CF286E3D
:10032200756C6C2900D2011200033001F8C2017809
:100332001830D50108F60200A92D50434958120081
:10034200032403B405004001E490033B9312002F01
:0D035200743A12002FD20375180402018EB8
:10038C00E3F5F009E208B5F06D606B80F3E3F5F08E
:10039C0009E608B5F060605E80F387F009E608B501
:1003AC00F054605280F487F009E208B5F0486046DA
:1003BC0080F488828C8387F009E0A3B5F03860362E
:1003CC0080F488828C8387F009E493A3B5F02760CE
:1003DC002580F388828C83E3F5F009E0A3B5F01651
:1003EC00601480F388828C83E3F5F009E493A3B561
:1003FC00F004600280F20204B7808580E7808E8072
:10040C00D2803C8015806C807E809B80B5808B80F8
:10041C00A1804F8070803A0204C389828A83ECFAEF
:10042C00E493F5F0A3C8C582C8CCC583CCE493A3F0
:10043C00C8C582C8CCC583CCB5F070606E80E1892C
:10044C00828A83E493F5F0A3E208B5F05E605C80E9
:10045C00F289828A83E0F5F0A3E608B5F04D604B93
:10046C0080F389828A83E0F5F0A3E208B5F03C6062
:10047C003A80F389828A83E493F5F0A3E608B5F019
:10048C002A602880F2805389828A83ECFAE493F5FF
:10049C00F0A3C8C582C8CCC583CCE0A3C8C582C8AC
:1004AC00CCC583CCB5F004600280E27FFFB5F002CE
:1004BC000F2240027F012289828A83ECFAE0F5F058
:1004CC00A3C8C582C8CCC583CCE0A3C8C582C8CCA0
:1004DC00C583CCB5F0D560D380E389828A83ECFAEE
:1004EC00E0F5F0A3C8C582C8CCC583CCE493A3C8FF
:1004FC00C582C8CCC583CCB5F0B160AF80E288F0C2
:10050C00ED2402B4040050A3F582EB2402B40400E1
:0B051C005099232345822390040573AF
:10052700BB010689828A83E0225002E722BBFE02D2
:09053700E32289828A83E4932205
:10054000BB010689828A83F0225002F722BBFE019A
:02055000F32294
:10055200FAE6FB0808E6F925F0F618E6CA3AF622AA
:10056200D083D082F8E4937012740193700DA3A328
:1005720093F8740193F5828883E47374029368603C
:06058200EFA3A3A380DF3C
:10071F00EFB40A07740D12072A740A309811A899BA
:10072F00B8130CC2983098FDA899C298B811F6303A
:07073F0099FDC299F5992212
:00000001FF
