:100D950025640054656D703A20006F43202000489B
:0A0DA500756D693A2000252020003A
:090DD900E4FF120C917F0A7E0078
:0B0DE200EF1FAC0670011E4C70F622E3
:100C9100EF6004D2808002C280D281ED30E703D3BD
:100CA1008001C39285ED30E603D38001C39284EDC8
:100CB10030E503D38001C39283ED30E403D3800197
:0C0CC100C39282C2817F017E00020DE21E
:100DAF00AB07EB54F0FD7F01120C91EBC454F0FD37
:050DBF007F01020C9110
:100DC400AB07EB54F0FDE4FF120C91EBC454F0FDBF
:050DD400E4FF020C9198
:100CF400120DDE7D30120DD9120DD9120DD97D20C1
:100D0400E4FF120C917F28120DC47F0C120DC47FD6
:040D140006020DC402
:0C0E13007F01120DC47F0A7E00020DE278
:060D18008B2C8A2D892EB0
:100D1E00E4F52FAB2CAA2DA92E852F8275830012F8
:0C0D2E000B5CFF6007120DAF052F80E783
:010D3A002296
:100D5B00752FFF75300D7531958E328F337B007A81
:0F0D6B0000792212085C7B007A007922020D18B1
:100D7A00AA05A907EA7007E92480FF120DC4EA64EC
:0B0D8A00017007E924C0FF120DC42215
:100D3B00E4FDFCE4FBFAC3EB9FEA9E50070BBB0000
:0F0D4B00010A80F20DBD00010CED647B4C70E4D9
:010D5A002276
:100DED00758901758CB8758A0CD28C308DFDC28CCD
:030DFD00C28D2282
:100E0000758901758CFF758AF1D28C308DFDC28C8D
:030E1000C28D226E
:090E2B00AF8CEFFEAD8AEDFF2251
:100BEA00C286120DEDD2862086FD3086FD2086FD56
:100BFA00E4FFFEE4FDFC3086FD120E0074222FF89D
:100C0A0030860EE625E04401FB74222FF8A6038005
:100C1A0008C000E625E0D000F62086FD0DBD0001E3
:100C2A000CED64084C70CF0FBF00010EEF64054E47
:080C3A0070C185240985220820
:010C4200228F
:100C4300120CF4120BEAE4FDFF120D7A7BFF7A0D0E
:100C53007998120D18AF097E00120D5B7BFF7A0D98
:100C6300799F120D187D01E4FF120D7A7BFF7A0D37
:100C730079A4120D18AF087E00120D5B7BFF7A0D6D
:0E0C830079AB120D187FF47E01120D3B80B587
:03000000020E1FCE
:0C0E1F00787FE4F6D8FD75813F020C439B
:100B5C00BB010CE58229F582E5833AF583E022504E
:100B6C0006E92582F8E622BBFE06E92582F8E22298
:0D0B7C00E58229F582E5833AF583E49322B2
:10080000E53B242FF8E6053B22782C300702782FB1
:10081000E475F001120BB4020B892000EB7F2ED29D
:10082000008018EF540F2490D43440D4FF30040BD0
:10083000EF24BFB41A0050032461FFE53C600215A9
:100840003C053FE53F7002053E30070D782CE4750E
:10085000F001120BB4EF020BA2020CCD7403D2070D
:100860008003E4C207F53B8B2C8A2D892EE4F53CEE
:10087000F53EF53FE53C60077F2012083B80F575AB
:100880003DFFC201C200C202C203C205C206C208C5
:10089000120809FF700D3007057F0012084CAF3FAA
:1008A000AE3E22B4255FC2D5C204120809FF24D08F
:1008B000B40A00501A75F00A783C30D50508B6FF26
:1008C0000106C6A426F620D5047002D20380D924DE
:1008D000CFB41A00EF5004C2E5D204020A4CD20190
:1008E00080C6D20080C0D20280BCD2D580BAD205E8
:1008F00080B47F2012083B2002077401B53C004001
:10090000F1120800FF12083B020874D208D20680D8
:1009100095120800FB120800FA120800F94A4B7001
:1009200006791D7A0B7BFF20022EE53C602A7E00B3
:100930008E82758300120B5C60060EEE653D70F0D2
:10094000C2D5EBC0E0EAC0E0E9C0E0EE120A93D005
:10095000E0F9D0E0FAD0E0FB120B89FF60AAEBC00F
:10096000E0EAC0E0E9C0E012083BD0E02401F9D0A1
:10097000E03400FAD0E0FBE53D0460DCD53DD980F1
:10098000877BFF7A0A798FD202809C791080027966
:1009900008C206C2088008D2D5790A8004790AC242
:1009A000D5E53D047002F53DE4FAFDFEFF120800B6
:1009B000FC7B08200113120800FD7B1030000A1296
:1009C0000800FE120800FF7B20EC3382D592D55040
:1009D00013C3E43000069FFFE49EFEE42001039D64
:1009E000FDE49CFCE4CBF8C201EC700CCFCECDCC86
:1009F000E824F8F870F38017C3EF33FFEE33FEED11
:100A000033FDEC33FCEB33FB994002FB0FD8E9EBF1
:100A1000300105F8D0E0C448B201C0E00AEC4D4E08
:100A20004F78207B0070C2EAB53D0040BCC0E012A8
:100A30000A95D0F0D0E0200104C4C0E0C4B201C0E7
:100A4000F0120824D0F0D5F0EB020874120BC409A0
:100A50001153098B5808E24C08DE42098F4F099761
:0F0A60004409974908F743099D550981460981C3
:100A6F00450981470B3D5008E62D08EA2E090D2B4D
:100A7F0008EE23090B200B262A08A64800000905BB
:100A8F003F3F3F00790AA2D5200314300509B91062
:100A9F00020404B9080104A2D52006025001042063
:100AAF0002689202B53C005034C0E07F2030031939
:100ABF007F30A20272067205500F120AECC202C2F8
:100ACF0006C205C2087F30800F300503E9C0E0126F
:100ADF00083B300503D0E0F9D0E0B53CCC3005172A
:100AEF007F30B9100C12083B7F583004077F788095
:100AFF0003B9080312083B3002057F2D02083B7F24
:100B0F00202008F87F2B2006F322920280CF286E38
:100B1F00756C6C2900D2011208003001F8C20178FF
:100B2F003C30D50108F60208A62D5043495812084B
:100B3F00002403B405004001E4900B389312082CF5
:0D0B4F00743A12082CD203753C0402098B85
:100B8900BB010689828A83E0225002E722BBFE026A
:090B9900E32289828A83E493229D
:100BA200BB010689828A83F0225002F722BBFE0132
:020BB200F3222C
:100BB400FAE6FB0808E6F925F0F618E6CA3AF62242
:100BC400D083D082F8E4937012740193700DA3A3C0
:100BD40093F8740193F5828883E4737402936860D4
:060BE400EFA3A3A380DFD4
:100CCD00EFB40A07740D120CD8740A309811A89954
:100CDD00B8130CC2983098FDA899C298B811F63087
:070CED0099FDC299F599225F
:00000001FF
