:0F026400446F206E6869657420646F2E2E2E0023
:0402B200020D000A2F
:1001170012009A7FC87E001201AC7BFF7A027964D5
:100127001201667FF47E011201AC12028F120216D1
:0B0137001202A71201891202B780F823
:0E0281004E6869657420646F3A2000274300C0
:030201001201CC1B
:10020400D2827F037E00120252C2827F327E0002BB
:02021400025294
:1001CC00EF139284EFC313139285EF1313543F1361
:0C01DC009286EF131313541F1392872216
:10023F008F0CE50CC4540FFF120201AF0C1201CC4E
:03024F00020204A4
:0C028F007F0112023F7F0A7E0002025233
:10009A00E4FF1201CC7F147E001201ACC280C2813F
:1000AA007F031202017F057E001201AC1202047F57
:1000BA00647E001202521202047F021201CC120262
:1000CA00047F2812023F7F0C12023F7F0612023F72
:0500DA007F0102023F5E
:10022B00ED7007EF2480F5088005EF24C0F508AFCB
:04023B000802023F74
:04029B00842430FF88
:08029F00D28012023FC280224E
:100166008B098A0A890BAB09AA0AA90B1201E8FFB7
:10017600601012029F7401250BF50BE4350AF50A8F
:0301860080E422F0
:1000DF008F087BFF7A027981120166E50875F0645B
:1000EF0012029BE50875F06484E5F075F00A1202C0
:1000FF009BE50875F00A84E5F02430FF12029F7B20
:08010F00FF7A02798C020166FF
:08000300E4FF1201428F0F22FD
:0E027300E4FDFF12022B120003AF0F0200DFAA
:10025200E4FDFCC3ED9FEC9E50070DBD00010C8038
:01026200F2A9
:010263002278
:1001AC00E4FDFCC3ED9FEC9E5015E4FBFA0BBB0089
:0F01BC00010AEB647D4A70F50DBD00010C80E473
:0101CB002211
:10014200EF1392A0EFA2E192A1A2E292A2D2A5D2D3
:10015200A3D2A4C2A3C2A420A5FD30A5FDD2A6AFFE
:03016200B0C2A682
:010165002277
:10021600E58954F04402F589758A9B758C9BD2A9B1
:05022600D28CD2AF22D2
:0B02A700E589540F4410F589D28E2227
:03000B000202BB33
:0302BB00B2A732B5
:10018900758D4B758BFD308FFDE50E150E700215C3
:100199000DE50E450D7009120273750D00750E0AF5
:0301A900C28F22E0
:0402B7004387012256
:0300000002000EED
:0C000E00787FE4F6D8FD75810F020055E4
:1001E800BB010689828A83E0225002E722BBFE0215
:0901F800E32289828A83E4932248
:10001A00020117E493A3F8E493A34003F68001F2E4
:10002A0008DFF48029E493A3F85407240CC8C333E7
:10003A00C4540F4420C8834004F456800146F6DFB6
:10004A00E4800B01020408102040809002B2E47E92
:10005A00019360BCA3FF543F30E509541FFEE493AB
:10006A00A360010ECF54C025E060A840B8E493A372
:10007A00FAE493A3F8E493A3C8C582C8CAC583CA9D
:10008A00F0A3C8C582C8CAC583CADFE9DEE780BE55
:0102B6000047
:00000001FF
