:0C0A2D000A0BC0F9A4B0999282F88090E6
:0709D5001209FC7F967E0071
:1009DC00E4FDFCE4FBFAC3EB9FEA9E50070BBB0063
:0F09EC00010A80F20DBD00010CED647B4C70E43C
:0109FB0022D9
:0B0A3A00EF1FAC0670011E4C70F6228E
:1009FC00E4FBFAC2907F307E00120A3AD2907F302C
:100A0C007E00120A3A0BBB00010AEB64644A70E3E5
:010A1C0022B7
:100A1D00758901758CF8758A2FD2A9D28CD2AF2227
:03000B00020800E8
:10080000C0E0C0F0C0D075D000C000C002C003C0BE
:1008100004C005C006C007C28C758CF8758A2F7598
:10082000A000E50AFB7A007017AE08AF097C037DD3
:10083000E8120951740B2FF8E6F58075A001806469
:10084000EB64014A7024AE08AF097C037DE812090D
:10085000517E007F64CFCDCFCECCCE120951740B28
:100860002FF8E6F58075A002803AE50A6402AE082A
:10087000AF09701FFC7D641209517E007F0ACFCD45
:10088000CFCECCCE120951740B2FF8E6F58075A0AF
:100890000480117C007D0A120951740B2DF8E6F5D5
:1008A0008075A008050AE50A64047002F50AD28C76
:1008B000D007D006D005D004D003D002D000D0D0CD
:0508C000D0F0D0E03291
:1009A600120A1DE4F508F509F50A2091FDE509246A
:1009B60001FFE43508FE7C277D101209518C088D55
:0F09C60009C2921209D51209D5D292D29180DBC3
:030000000208C52E
:0C08C500787FE4F6D8FD75811402090C60
:10095100BC000BBE0029EF8DF084FFADF022E4CC8A
:10096100F875F008EF2FFFEE33FEEC33FCEE9DEC53
:10097100984005FCEE9DFE0FD5F0E9E4CEFD22ED99
:10098100F8F5F0EE8420D21CFEADF075F008EF2FE3
:10099100FFED33FD4007985006D5F0F222C398FDD4
:0509A1000FD5F0EA2271
:1008D1000209A6E493A3F8E493A34003F68001F28E
:1008E10008DFF48029E493A3F85407240CC8C33328
:1008F100C4540F4420C8834004F456800146F6DFF7
:10090100E4800B0102040810204080900A2DE47E4F
:10091100019360BCA3FF543F30E509541FFEE493EB
:10092100A360010ECF54C025E060A840B8E493A3B2
:10093100FAE493A3F8E493A3C8C582C8CAC583CADD
:10094100F0A3C8C582C8CAC583CADFE9DEE780BE95
:010A390000BC
:00000001FF
