:1000FC00EF1FAA0670011E4A6015E4FCFDC3ED94C7
:0F010C007BEC6480948050E80DBD00010C80EE08
:01011B0022C1
:10000300758910758DEC758B77D2ABD28ED2AF22FA
:03001B000200736D
:10007300C0E0C28E758DEC758B77E50915097002AA
:100083001508E5094508702820900B7508037509C4
:10009300E87590FD801A20910B75080B7509B875EA
:1000A30090FB800C2092097508077509D07590FEA6
:0500B300D28ED0E03206
:1000B80075080B7509B87590FB120003AE08AF09F7
:1000C8007C007DC812001E8E0A8F0B7C007D0A12F0
:1000D800001EEFC4F8540FC868FFAB07AE0AAF0B99
:1000E8007C007D0A12001EEB2DF5807F647E0012D5
:0400F80000FC80C8C0
:0300000002011CDE
:0C011C00787FE4F6D8FD75810B0200B876
:10001E00BC000BBE0029EF8DF084FFADF022E4CCC6
:10002E00F875F008EF2FFFEE33FEEC33FCEE9DEC8F
:10003E00984005FCEE9DFE0FD5F0E9E4CEFD22EDD5
:10004E00F8F5F0EE8420D21CFEADF075F008EF2F1F
:10005E00FFED33FD4007985006D5F0F222C398FD10
:05006E000FD5F0EA22AD
:00000001FF
