:100C1500202020202000202020202020002020200F
:100C250020202020200020202020202020202020DF
:100C350020202020200041646A75737420686F7538
:100C450072202020200041646A757374206D696EDE
:100C550075746520200041646A757374207365633B
:100C65006F6E6420200041646A757374206461743A
:100C750065202020200041646A757374206D6F6EB5
:100C850074682020200041646A7573742079656159
:100C950072202020200053657420616C61726D3ACA
:100CA50020686F75720053657420616C61726D3ACE
:060CB500206D696E2000B5
:0810C200030F0000000108000B
:09107E00E4FF120E347F0A7E002B
:0B108700EF1FAC0670011E4C70F6223B
:100E3400EF6004D2828002C282D283ED30E703D312
:100E44008001C39287ED30E603D38001C39286ED1F
:100E540030E503D38001C39285ED30E403D38001F0
:0C0E6400C39284C2837F017E00021087CD
:070FD6007E00120DB07F3A0E
:100FDD00AB07EB54F0FD7F01120E34EBC454F0FD62
:050FED007F01020E343B
:10105400AB07EB54F0FDE4FF120E34EBC454F0FD87
:05106400E4FF020E3460
:100F71001210837D3012107E12107E12107E7D20A1
:100F8100E4FF120E347F281210547F0C1210547F8C
:040F910006021054F0
:0C109F007F011210547F0A7E00021087AF
:060EA2008B198A1A891B5E
:100EA8001210698F1CE4F51DE51DC3951C5017AB86
:100EB80019AA1AA91B851D827583001209C7FF127A
:060EC8000FDD051D80E2B4
:010ECE002201
:040DB0008F828E831D
:100DB400C3E583648094805010C3E49582F582E493
:100DC4009583F5837F2D120FDD7C007D0AAF82AE03
:100DD40083120A5BAB07AE83AF827C007D0A120AE2
:100DE4005B8D82EB2430FF120FDDE5822430FF029D
:020DF4000FDD11
:100FF200AA05A907EA7007E92480FF121054EA64DF
:0B100200017007E924C0FF1210542207
:0D100D007F027E0012101AD2817F027E0049
:0B101A00EF1FAC0670011E4C70F622A8
:10103D00D281C281D280121014C280121016C281C8
:07104D007F027E0002101A71
:0C10AB00D281C281C28012100DD28022BE
:100F2500E4FDFCEF30E703D38001C39280D281C298
:100F350081EF25E0FF0DBD00010CED64084C70E369
:050F4500121014C2812E
:010F4A002284
:100F4B00E4FDFBEBC3940874809480501612100DD3
:100F5B00A2809200ED25E0FDA200E4334205C281A0
:050F6B000B80E0AF0562
:010F7000225E
:020DF600AB0749
:100DF80012103D7FD0120F25AF03120F2512103DA0
:100E08007FD1120F25120F4BAB077A001210ABEAF5
:100E1800C4F854F0C868FEEBC4540F48FF7C007D4A
:0B0E28000A1209F4EB540F2FFBAF037C
:010E3300229C
:100D4700120B62120ECFAD0EE4FF120D82AD137FB0
:100D570001120D82AD127F02120D82AD097F0412BE
:100D67000D82AD147F05120D82AD0C7F06120D8228
:0B0D7700AD0D7F08120D82AD0B7F094F
:040D8200AB05AA070C
:100D8600EBFF7E007C007D0A120A06EB75F00A84F2
:100D9600C454F04DFB12103D7FD0120F25AF021246
:0A0DA6000F25AF03120F250210AB5A
:100FB600E4FDFCE4FBFAC3EB9FEA9E50070BBB0083
:0F0FC600010A80F20DBD00010CED647B4C70E45C
:010FD50022F9
:0B10B700EF1FAC0670011E4C70F6220B
:100F9500E4FBFAC2907F327E001210B7D2907F3206
:100FA5007E001210B70BBB00010AEB64644A70E3C4
:010FB5002219
:100B6200E50E643C7002F50EAF0E7E00BEFF06BFBE
:100B7200FF03750E3BE513643C7002F513AF137E61
:100B820000BEFF06BFFF0375133BE5126418700237
:100B9200F512AF127E00BEFF06BFFF03751217E506
:100BA20014700375140CE514640D7003751401AF11
:100BB200147E00EF64027024E50C5403700FE50903
:100BC200700375091DE509641E70478042E50970CE
:100BD2000375091CE509641D70388033EF64044E07
:100BE2006011AF14EF6406600AEF64096005EF64F8
:100BF2000B700FE509700375091EE509641F701279
:100C0200800DE509700375091FE5096420700375FD
:030C1200090122B3
:100ECF00E50D643C7002F50DAF0D7E00BEFF06BF51
:100EDF00FF03750D3BE50B64187002F50BAF0B7E2E
:0B0EEF0000BEFF06BFFF03750B1722BB
:100EFA00120FF2AF0A120FD6AF13120FD6AF0E7E31
:100F0A0000120DB07F20120FDD7B007A00790F12DC
:0B0F1A000EA27BFF7A0C7915020EA2DC
:100E7000120FF2AF097E00120DB07F2F120FDDAFFF
:100E8000147E00120DB07F2F120FDD7F147E001232
:100E90000DB0AF0C7E00120DB07BFF7A0C791B02F7
:020EA0000EA2A0
:10102500120FF2AF0B120FD6AF0D7E00120DB07B73
:08103500FF7A0C7922020EA2E1
:0D109200E4FDFF120EFA7D01E4FF020E7076
:100800003091030208A2D291120F95E5082401FF4E
:10081000E433FE7C007D09120A068D08E4FDFF1218
:100820000FF2E50870087BFF7A0C792B806EE508E3
:10083000640170087BFF7A0C793B8060E5086402F4
:1008400070087BFF7A0C794B8052E50864037008CE
:100850007BFF7A0C795B8044E508640470087BFFB9
:100860007A0C796B8036E508640570087BFF7A0C9A
:10087000797B8028E508640670087BFF7A0C798B09
:10088000801AE508640770087BFF7A0C799B800C5E
:10089000E508640870097BFF7A0C79AB120EA2029E
:1008A0000965209260E508605CD292120F95AF084E
:1008B0007E00EF6401700405128044EF64024E7004
:1008C000040513803AEF64034E7004050E8030EF88
:1008D00064044E700405098026EF64054E7004051B
:1008E00014801CEF64064E7004050C8012EF640740
:1008F0004E7004050B8008EF64084E7002050D125F
:100900000D47020965209364E5086060D293120FD9
:1009100095AF087E00EF6401700415128044EF6407
:10092000024E70041513803AEF64034E7004150EE6
:100930008030EF64044E700415098026EF64054E84
:1009400070041514801CEF64064E7004150C8012A0
:10095000EF64074E7004150B8008EF64084E7002B8
:10096000150D120D477F647E00120FB6AF087E0092
:10097000D374019F7480F8985010EF94037480949E
:100980008050077D01E4FF020EFAAF087E00D374A9
:10099000049F7480F8985010EF94067480948050EF
:1009A000077D01E4FF020E70AF087E00D374079F3D
:1009B0007480F8985010EF94087480948050077DEC
:0709C00001E4FF12102522E3
:100AAA00E4F515F516F517F5187F09120DF68F0BF3
:100ABA007F08120DF68F0D120F7112109F120F95EB
:100ACA007F647E00120FB6120F95120800E50870B7
:100ADA00F97F02120DF68F127F01120DF68F13E4C1
:100AEA00FF120DF68F0E7F04120DF68F097F051285
:100AFA000DF68F147F06120DF68F0C121092AF0EA0
:100B0A007E00EF65167002E515600B8E158F16E4F0
:100B1A00F517F51880080518E51870020517E5128B
:100B2A00B50B12E513B50D0DC3EF940AEE6480946C
:100B3A008050028016E5137015E50E7011E5184510
:100B4A00176008E518640445177003120F957F149F
:080B5A007E00120FB6020AD45E
:03000000020CBB34
:0C0CBB00787FE4F6D8FD758120020D0260
:1009C700BB010CE58229F582E5833AF583E02250E5
:1009D70006E92582F8E622BBFE06E92582F8E2222F
:0D09E700E58229F582E5833AF583E4932249
:1009F400EF8DF0A4A8F0CF8CF0A428CE8DF0A42E17
:020A0400FE22D0
:100A0600BC000BBE0029EF8DF084FFADF022E4CCD4
:100A1600F875F008EF2FFFEE33FEEC33FCEE9DEC9D
:100A2600984005FCEE9DFE0FD5F0E9E4CEFD22EDE3
:100A3600F8F5F0EE8420D21CFEADF075F008EF2F2D
:100A4600FFED33FD4007985006D5F0F222C398FD1E
:050A56000FD5F0EA22BB
:100A5B00C2D5EC30E709B2D5E4C39DFDE49CFCEEB6
:100A6B0030E715B2D5E4C39FFFE49EFE120A06C31E
:100A7B00E49DFDE49CFC8003120A0630D507C3E419
:060A8B009FFFE49EFE2225
:10106900E4FFFE120A91600C0FEF70010E09E9709E
:05107900F20A80EF22E5
:100CC700020AAAE493A3F8E493A34003F68001F28F
:100CD70008DFF48029E493A3F85407240CC8C3332E
:100CE700C4540F4420C8834004F456800146F6DFFD
:100CF700E4800B01020408102040809010C2E47EBB
:100D0700019360BCA3FF543F30E509541FFEE493F1
:100D1700A360010ECF54C025E060A840B8E493A3B8
:100D2700FAE493A3F8E493A3C8C582C8CAC583CAE3
:100D3700F0A3C8C582C8CAC583CADFE9DEE780BE9B
:0110CA000025
:100A9100BB010689828A83E0225002E722BBFE0263
:090AA100E32289828A83E4932296
:00000001FF
