:100FF70025303264002020202020002020202020BF
:101007002000202020202020202000202020202019
:10101700202020202020202020200041646A757392
:101027007420686F7572202020200041646A7573F0
:1010370074206D696E75746520200041646A75734C
:1010470074207365636F6E6420200041646A757352
:10105700742064617465202020200041646A7573E0
:1010670074206D6F6E74682020200041646A757368
:1010770074207965617220202020005365742061F7
:101087006C61726D3A20686F7572005365742061E8
:0B1097006C61726D3A206D696E2000E4
:031464000108007C
:09141700E4FF1211757F0A7E004A
:0B142000EF1FAC0670011E4C70F6229E
:10117500EF6004D2828002C282D283ED30E703D3CE
:101185008001C39287ED30E603D38001C39286EDDB
:1011950030E503D38001C39285ED30E403D38001AC
:0C11A500C39284C2837F017E00021420EC
:1013ED00AB07EB54F0FD7F01121175EBC454F0FD0A
:0513FD007F01021175E3
:10140200AB07EB54F0FDE4FF121175EBC454F0FD91
:05141200E4FF0211756A
:1012F50012141C7D301214171214171214177D20A6
:10130500E4FF1211757F281214027F0C1214027F5C
:0413150006021402B6
:0C1458007F011214027F0A7E00021420A3
:061319008B308A3189329D
:10131F00E4F533AB30AA31A93285338275830012DD
:0C132F000D91FF60071213ED053380E7FD
:01133B00228F
:10137D007533FF75340F7535F78E368F377B007AE1
:0F138D0000792612085C7B007A0079260213197A
:1013BB00AA05A907EA7007E92480FF121402EA6460
:0B13CB00017007E924C0FF1214022289
:1013D600D281C281D28012142BC28012142DC281F6
:0713E6007F027E00021431BA
:0F143C00D281C281C28012142D12142BD28022B1
:1012CF00E4FDFCEF30E703D38001C39280D281C2EB
:1012DF0081EF25E0FF0DBD00010CED64084C70E3BC
:0512EF0012142BC28166
:0112F40022D7
:10124E00E4F52AF529C3E529940874809480501C8E
:10125E0012142D12142BA2809200E52A25E0F52AF5
:0E126E00A200E433422AC281052980D9AF2AAA
:01127C00224F
:02112E008F260A
:101130001213D67FD01212CFAF261212CF1213D6AF
:101140007FD11212CF12124E7527008F2812143C35
:10115000E527C4F854F0C868FEE528C4540F48FFDA
:101160007C007D0A120DBEE528540F2FF528EC3EB9
:04117000F527AF2888
:011174002258
:0A11B100120F4412127DAD0DE4FF91
:0411BB008F268D27C7
:1011BF00AF277E007C007D0A120DD0E52775F00A5F
:1011CF0084FEC454F04DF5271213D67FD01212CFE0
:0D11DF00AF261212CFAF271212CF02143C20
:10135D00E4FDFCE4FBFAC3EB9FEA9E50070BBB00D8
:0F136D00010A80F20DBD00010CED647B4C70E4B1
:01137C00224E
:06142B00D2817F027E0069
:0B143100EF1FAC0670011E4C70F6228D
:10133C00E4FBFAC2907F327E00121431D2907F32DD
:10134C007E001214310BBB00010AEB64644A70E39B
:01135C00226E
:100F4400E50D643C7002F50DAF0D7E00BEFF06BFDB
:100F5400FF03750D3BE50F643C7002F50FAF0F7E88
:100F640000BEFF06BFFF03750F3BE50E6418700259
:100F7400F50EAF0E7E00BEFF06BFFF03750E17E52C
:100F840010700375100CE510640D7003751001AF3B
:100F9400107E00EF64027024E50B5403700FE50922
:100FA400700375091DE509641E70478042E50970E8
:100FB4000375091CE509641D70388033EF64044E21
:100FC4006011AF10EF6406600AEF64096005EF6416
:100FD4000B700FE509700375091EE509641F701293
:100FE400800DE509700375091FE509642070037518
:030FF400090122CE
:10127D00E50C643C7002F50CAF0C7E00BEFF06BFA2
:10128D00FF03750C3BE50A64187002F50AAF0A7E80
:0B129D0000BEFF06BFFF03750A17220A
:10121E001213BBAF0E7E0012137D7F3A1213EDAF89
:10122E000F7E0012137D7F3A1213EDAF0D7E00126A
:10123E00137D7F201213ED7BFF7A0F79FC021319B9
:1011EC001213BBAF097E0012137D7F2F1213EDAFCC
:1011FC00107E0012137D7F2F1213ED7F147E0012D0
:10120C00137DAF0B7E0012137D7BFF7A10790202E7
:02121C001319A4
:10139C001213BBAF0A7E0012137D7F3A1213EDAF0E
:0F13AC000C7E0012137D7BFF7A10790902131952
:0D144B00E4FDFF12121E7D01E4FF0211EC12
:100B5C00309103020BFED29112133CE5082401FFE5
:100B6C00E433FE7C007D09120DD08D08E4FDFF12EC
:100B7C0013BBE50870087BFF7A107912806EE508CC
:100B8C00640170087BFF7A1079228060E5086402AA
:100B9C0070087BFF7A1079328052E5086403700884
:100BAC007BFF7A1079428044E508640470087BFF6F
:100BBC007A1079528036E508640570087BFF7A104C
:100BCC0079628028E508640670087BFF7A107972D8
:100BDC00801AE508640770087BFF7A107982800C14
:100BEC00E508640870097BFF7A10799212131902D8
:100BFC000D2F309203020C98E5087003020C98D26A
:100C0C009212133CAF087E00EF64017004050E8055
:100C1C0044EF64024E7004050F803AEF64034E708B
:100C2C0004050D8030EF64044E700405098026EF36
:100C3C0064054E70040510801CEF64064E700405AC
:100C4C000B8012EF64074E7004050A8008EF6408ED
:100C5C004E7002050C1211B1AD0F7F011211BBAD1C
:100C6C000E7F021211BBAD097F041211BBAD107FB8
:100C7C00051211BBAD0B7F061211BBAD0C7F081218
:100C8C0011BBAD0A7F091211BB020D2F3093030269
:100C9C000D36E5087003020D36D29312133CAF08E3
:100CAC007E00EF64017004150E8044EF64024E70F8
:100CBC0004150F803AEF64034E7004150D8030EF6D
:100CCC0064044E700415098026EF64054E700415FB
:100CDC0010801CEF64064E7004150B8012EF640735
:100CEC004E7004150A8008EF64084E7002150C1241
:100CFC0011B1AD0F7F011211BBAD0E7F021211BBF2
:100D0C00AD097F041211BBAD107F051211BBAD0BE9
:100D1C007F061211BBAD0C7F081211BBAD0A7F0907
:100D2C001211BB7FC87E0012135DAF087E00D37416
:100D3C00019F7480F8985010EF9403748094805045
:100D4C00077D01E4FF02121EAF087E00D374049FDE
:100D5C007480F8985010EF94067480948050077D3E
:100D6C0001E4FF0211ECAF087E00D374079F74807E
:100D7C00F8985010EF94087480948050077D01E42B
:050D8C00FF12139C2280
:100E8600E4F522F523F524F5257F0912112E8F0AA4
:100E96007F0812112E8F0C1212F512145812133CE1
:100EA6007F647E0012135D12133C120B5CE5087022
:100EB600F9FF12112E8F0D7F0212112E8F0E7F0158
:100EC60012112E8F0FE4FF12112E8F0D7F041211B7
:100ED6002E8F097F0512112E8F107F0612112E8F6D
:100EE6000B12144BAF0D7E00EF65237002E52260F6
:100EF6000B8E228F23E4F524F52580080525E525AC
:100F060070020524E50EB50A12E50FB50C0DC3EF08
:100F1600940AEE6480948050028016E50F7015E501
:100F26000D7011E52545246008E525640445247007
:0E0F36000312133C7F147E0012135D020EB0F6
:030000000210A249
:0C10A200787FE4F6D8FD7581430210E968
:100D9100BB010CE58229F582E5833AF583E0225017
:100DA10006E92582F8E622BBFE06E92582F8E22261
:0D0DB100E58229F582E5833AF583E493227B
:100DBE00EF8DF0A4A8F0CF8CF0A428CE8DF0A42E49
:020DCE00FE2203
:100DD000BC000BBE0029EF8DF084FFADF022E4CC07
:100DE000F875F008EF2FFFEE33FEEC33FCEE9DECD0
:100DF000984005FCEE9DFE0FD5F0E9E4CEFD22ED16
:100E0000F8F5F0EE8420D21CFEADF075F008EF2F5F
:100E1000FFED33FD4007985006D5F0F222C398FD50
:050E20000FD5F0EA22ED
:10080000E53F2433F8E6053F22783030070278339D
:10081000E475F001120E50020E252000EB7F2ED25F
:10082000008018EF540F2490D43440D4FF30040BD0
:10083000EF24BFB41A0050032461FFE540600215A5
:10084000400543E5437002054230070D7830E475FA
:10085000F001120E50EF020E3E0212A87403D207EE
:100860008003E4C207F53F8B308A318932E4F540DA
:10087000F542F543E54060077F2012083B80F5759F
:1008800041FFC201C200C202C203C205C206C208C1
:10089000120809FF700D3007057F0012084CAF43A6
:1008A000AE4222B4255FC2D5C204120809FF24D08B
:1008B000B40A00501A75F00A784030D50508B6FF22
:1008C0000106C6A426F620D5047002D20380D924DE
:1008D000CFB41A00EF5004C2E5D204020A4CD20190
:1008E00080C6D20080C0D20280BCD2D580BAD205E8
:1008F00080B47F2012083B2002077401B5400040FD
:10090000F1120800FF12083B020874D208D20680D8
:1009100095120800FB120800FA120800F94A4B7001
:1009200006791D7A0B7BFF20022EE540602A7E00AF
:100930008E82758300120D9160060EEE654170F097
:10094000C2D5EBC0E0EAC0E0E9C0E0EE120A93D005
:10095000E0F9D0E0FAD0E0FB120E25FF60AAEBC070
:10096000E0EAC0E0E9C0E012083BD0E02401F9D0A1
:10097000E03400FAD0E0FBE5410460DCD541D980E9
:10098000877BFF7A0A798FD202809C791080027966
:1009900008C206C2088008D2D5790A8004790AC242
:1009A000D5E541047002F541E4FAFDFEFF120800AE
:1009B000FC7B08200113120800FD7B1030000A1296
:1009C0000800FE120800FF7B20EC3382D592D55040
:1009D00013C3E43000069FFFE49EFEE42001039D64
:1009E000FDE49CFCE4CBF8C201EC700CCFCECDCC86
:1009F000E824F8F870F38017C3EF33FFEE33FEED11
:100A000033FDEC33FCEB33FB994002FB0FD8E9EBF1
:100A1000300105F8D0E0C448B201C0E00AEC4D4E08
:100A20004F78207B0070C2EAB5410040BCC0E012A4
:100A30000A95D0F0D0E0200104C4C0E0C4B201C0E7
:100A4000F0120824D0F0D5F0EB020874120E600901
:100A50001153098B5808E24C08DE42098F4F099761
:0F0A60004409974908F743099D550981460981C3
:100A6F00450981470B3D5008E62D08EA2E090D2B4D
:100A7F0008EE23090B200B262A08A64800000905BB
:100A8F003F3F3F00790AA2D5200314300509B91062
:100A9F00020404B9080104A2D52006025001042063
:100AAF0002689202B540005034C0E07F2030031935
:100ABF007F30A20272067205500F120AECC202C2F8
:100ACF0006C205C2087F30800F300503E9C0E0126F
:100ADF00083B300503D0E0F9D0E0B540CC30051726
:100AEF007F30B9100C12083B7F583004077F788095
:100AFF0003B9080312083B3002057F2D02083B7F24
:100B0F00202008F87F2B2006F322920280CF286E38
:100B1F00756C6C2900D2011208003001F8C20178FF
:100B2F004030D50108F60208A62D50434958120847
:100B3F00002403B405004001E4900B389312082CF5
:0D0B4F00743A12082CD20375400402098B81
:1010AE00020E86E493A3F8E493A34003F68001F2C4
:1010BE0008DFF48029E493A3F85407240CC8C33343
:1010CE00C4540F4420C8834004F456800146F6DF12
:1010DE00E4800B0102040810204080901464E47E2A
:1010EE00019360BCA3FF543F30E509541FFEE49307
:1010FE00A360010ECF54C025E060A840B8E493A3CE
:10110E00FAE493A3F8E493A3C8C582C8CAC583CAF8
:10111E00F0A3C8C582C8CAC583CADFE9DEE780BEB0
:011467000084
:100E2500BB010689828A83E0225002E722BBFE02CB
:090E3500E32289828A83E49322FE
:100E3E00BB010689828A83F0225002F722BBFE0193
:020E4E00F3228D
:100E5000FAE6FB0808E6F925F0F618E6CA3AF622A3
:100E6000D083D082F8E4937012740193700DA3A321
:100E700093F8740193F5828883E473740293686035
:060E8000EFA3A3A380DF35
:1012A800EFB40A07740D1212B3740A309811A89992
:1012B800B8130CC2983098FDA899C298B811F630A6
:0712C80099FDC299F599227E
:00000001FF
